:100000000C9486010C94A5010C94A5010C94A501F7
:100010000C94A5010C94760C0C944C0C0C94220CB2
:100020000C94F80B0C94A5010C9431020C94A501CE
:100030000C94A5010C94A5010C947C020C94A501D0
:100040000C9412020C94A5010C94A5010C94A5012A
:100050000C94A5010C94A5010C94A5010C94A50188
:100060000C94A5010C94A5010C94A5010C94A50178
:100070000C94A5010C9450020C943B030C94A50124
:100080000C94A5010C94A5010C94A50189068E067B
:100090009E069E068E068E069E069E069E069E0660
:1000A0009E069E069E069E069E069E068E068E0650
:1000B0009E069E068E068E0657069E069E065706CE
:1000C00057069E069E069E069E069E069E069E0657
:1000D0009E069E069E06570657069E069E065706D5
:1000E00057065C069E069E065C065C069E069E06FD
:1000F0009E069E069E069E069E069E069E069E06E0
:100100005C065C069E069E065C065C068906890601
:100110009E069E06890689069E069E069E069E06E9
:100120009E069E069E069E069E069E0689068906D9
:100130009E069E06890689068E069E069E068E06E9
:100140008E069E069E069E069E069E069E069E069F
:100150009E069E069E068E068E069E069E068E06AF
:100160008E0673069E069E06730673069E069E0600
:100170009E069E069E069E069E069E069E069E065F
:10018000730673069E069E06730673068906890625
:100190009E069E06890689069E069E069E069E0669
:1001A0009E069E069E069E069E069E068906890659
:1001B0009E069E06890689068E069E069E068E0669
:1001C0008E069E069E069E069E069E069E069E061F
:1001D0009E069E069E068E068E069E069E068E062F
:1001E0008E0695069E069E06950695069E069E061A
:1001F0009E069E069E069E069E069E069E069E06DF
:10020000950695069E069E06950695068009800928
:10021000C309C30980098009C309C309C309C30904
:10022000C309C309C309C309C309C30980098009F4
:10023000C309C309800980098F09C309C3098F094C
:100240008F09C309C309C309C309C309C309C30982
:10025000C309C309C3098F098F09C309C3098F09DA
:100260008F098F09C309C3098F098F09C309C309FE
:10027000C309C309C309C309C309C309C309C3091E
:100280008F098F09C309C3098F098F09461D3F1DB7
:10029000451D451D3F1D3F1D451D451D451D451D5A
:1002A000451D451D451D451D451D451D3F1D3F1D4A
:1002B000451D451D3F1D3F1D411D451D451D411D42
:1002C000411D451D451D451D451D451D451D451D22
:1002D000451D451D451D411D411D451D451D411D1A
:1002E000411D431D451D451D431D431D451D451D08
:1002F000451D451D451D451D451D451D451D451DEE
:10030000431D431D451D451D431D431D11241FBE97
:10031000CFEFD0E1DEBFCDBF1BE0A0E0B1E0EAEF60
:10032000FFE400E00BBF02C007900D92A436B107B6
:10033000D9F71CE0A4E6BBE001C01D92A534B107CB
:10034000E1F70E94A7010C94FB270C94000084E0C5
:100350000E94540480509240A4F480ED97E020E97C
:1003600031E0F9013197F1F70197D9F784E00E9464
:100370005404805092403CF40E94241C0E94A00C23
:1003800002C00E94231880E090E0089583E882BFB5
:1003900085E083BF87B7816087BF1092AA0B109258
:1003A000A90B1092860B1092850B08958FEF8DBDCF
:1003B00085E08CBD1FBC83E08EBD87B7846087BF9E
:1003C0001092A60B1092A50B1092980B1092970BFF
:1003D000089586E084BD83E085BD87B7806487BFCC
:1003E0001092730B1092720B1092840B1092830B6D
:1003F00008958FEF8093890085E0809388001092A4
:100400008B0083E080938A00EDE7F0E080818460D8
:1004100080831092A20B1092A10B1092C10B10922C
:10042000C00B08951F920F920FB60F9211248F9355
:100430009F9383E882BF8091850B9091860B892BD7
:1004400049F08091A90B9091AA0B01969093AA0B69
:100450008093A90B9F918F910F900FBE0F901F90CB
:1004600018951F920F920FB60F9211248F939F939E
:1004700086E084BD8091830B9091840B892B49F099
:100480008091720B9091730B01969093730B8093F4
:10049000720B9F918F910F900FBE0F901F90189528
:1004A0001F920F920FB60F9211248F939F938FEF8D
:1004B0008093890085E0809388008091C00B9091A3
:1004C000C10B892B49F08091A10B9091A20B019651
:1004D0009093A20B8093A10B9F918F910F900FBED1
:1004E0000F901F9018950E94C6010E94D6010E948D
:1004F000E9010E94F90108951F920F920FB60F9221
:100500000BB60F9211242F933F934F935F936F93EA
:100510007F938F939F93AF93BF93EF93FF934FEF8F
:100520004DBD85E08CBD2091A50B3091A60B80912F
:100530007B0B90917C0B28173907E8F08091720BA8
:100540009091730B885E934030F040938B0B4093F7
:100550008D0B40938C0B0E94321A0E94C8190E9486
:10056000D8180E94F71C0E94EE1D0E94511D109287
:10057000A60B1092A50B8091A50B9091A60B01964E
:100580009093A60B8093A50BFF91EF91BF91AF9134
:100590009F918F917F916F915F914F913F912F919B
:1005A0000F900BBE0F900FBE0F901F9018955D9B84
:1005B000FECF8CB90895982F80919B0085FFFCCFCA
:1005C00090939C0080919B0086FFFCCF0895CF9371
:1005D000DF93EC0103C00E94DB022196888188230F
:1005E000D1F7DF91CF910895FC0104C05D9BFECF50
:1005F0008CB9319680818823C9F7089580919B003A
:1006000087FFFCCF80919C0008950F931F938C016E
:1006100060E071E00E947824862F0E94DB02C8010E
:1006200060E071E00E9478240E94DB021F910F912C
:100630000895F8941BB81092900019B826E0209302
:10064000950098E99AB910929B001092980087E65D
:100650008093990020939D0090939A000895813093
:1006600021F480919A00806803C080919A008F776E
:1006700080939A0008951F920F920FB60F920BB6B7
:100680000F9211241F932F933F934F935F936F9378
:100690007F938F939F93AF93BF93EF93FF9380913B
:1006A0009B0087FFFCCF10919C000E946C1C892B43
:1006B00011F00E947E1C812F90E00E948E1CFF9101
:1006C000EF91BF91AF919F918F917F916F915F91CA
:1006D0004F913F912F911F910F900BBE0F900FBE26
:1006E0000F901F9018950F931F93DF93CF93CDB763
:1006F000DEB7C054D0400FB6F894DEBF0FBECDBFFA
:1007000000D000D000D0EDB7FEB731968E010F5F5C
:100710001F4FADB7BEB712961C930E93119720E0F2
:1007200031E033832283958384830E94FC248DB738
:100730009EB706960FB6F8949EBF0FBE8DBFC80138
:100740000E94E702C05CDF4F0FB6F894DEBF0FBE19
:10075000CDBFCF91DF911F910F910895BF92CF929E
:10076000DF92EF92FF920F931F93CF93DF93082FA7
:10077000B62ED42EC52EE22EF8948AB383608ABB9F
:100780008BB38C7F8BBBD89A80E991E00197F1F70E
:100790008FEF90E00E94D7028FEF90E00E94D70287
:1007A000C02FD0E0CE010E94D7020B2D10E0C8016F
:1007B00002960E94D702FF24C7010E94D702229608
:1007C000C00FD11FCE0DDF1D2D2D3C2DC9016C0199
:1007D00000E00BC0F601808190E00E94D702F60194
:1007E00081916F01C80FD11D0F5F0B1598F39E010A
:1007F0002095822F90E00E94D7025D9BFECFDF9173
:10080000CF911F910F91FF90EF90DF90CF90BF900D
:100810000895DF93CF9300D000D00F92CDB7DEB70D
:10082000982F84E060307807A4F484E040305807C3
:1008300084F4F8948EE189836A837B834C835D839F
:10084000892F65E0AE014F5F5F4F23E00E94AE034A
:1008500078940F900F900F900F900F90CF91DF91A1
:100860000895FB01895F877087B987EC86B980E0BE
:1008700090E009C001962EE38138920721F483E0CD
:1008800086B98FEF08953699F5CF84B195B19183EC
:1008900080838050944024F08FEF93E09183808395
:1008A00087E086B981E00895895F877087B987EC12
:1008B00086B980E090E00AC001962EE38138920765
:1008C00029F483E086B92FEF3FEF0FC03699F4CFBC
:1008D00084B195B18050944020F08FEF93E095B9AA
:1008E00084B987E086B924B135B1C9010895EF9282
:1008F000FF920F931F93CF93DF938C017B01EA014B
:100900008DE00E94DB02C8010E947303C7010E94B0
:10091000E702CD30D10519F0CE010E94E7028DE04B
:100920000E94DB02DF91CF911F910F91FF90EF901A
:1009300008950F931F93CF93DF93EC018B01452B09
:1009400089F463E071E04DE050E00E947704CE014D
:1009500065E071E04DE050E00E947704CE016AE06E
:1009600071E010C063E071E04DE050E00E94770458
:10097000CE0165E071E04DE050E00E947704CE01C9
:100980006DE071E0A8010E947704CE0163E071E0A0
:100990004DE050E00E947704DF91CF911F910F91BD
:1009A000089560E171E043E151E00E947704089509
:1009B000EF92FF920F931F93DF93CF9300D000D05D
:1009C00000D0CDB7DEB77C0100D000D000D0EDB7AD
:1009D000FEB731968E010F5F1F4FADB7BEB71296AF
:1009E0001C930E93119785E191E093838283758325
:1009F00064830E94FC248DB79EB706960FB6F894C8
:100A00009EBF0FBE8DBFC70168E171E0A8010E94C3
:100A1000770426960FB6F894DEBF0FBECDBFCF91F8
:100A2000DF911F910F91FF90EF9008950F931F9307
:100A300027B72B7F27BF00271127081B190B809191
:100A4000C60B9091C70BB8010E94D80480918F0B00
:100A50009091900BB8010E94D80487B7846087BF3B
:100A60001F910F9108950F931F938B0127B72B7F31
:100A700027BF66277727681B790B8091C60B90915B
:100A8000C70B0E94D80480918F0B9091900BB801F6
:100A90000E94D80487B7846087BF1F910F91089583
:100AA000BC010E9433050895AF92BF92CF92DF92AE
:100AB000EF92FF920F931F93DF93CF9300D000D05C
:100AC00000D0CDB7DEB77C015A0100D000D000D0F5
:100AD000EDB7FEB731968E010F5F1F4FADB7BEB7B2
:100AE00012961C930E93119785E1C82E81E0D82EA3
:100AF000D382C282758364830E94FC248DB79EB723
:100B000006960FB6F8949EBF0FBE8DBFC7016AE16F
:100B100071E0A8010E94770400D000D000D0EDB7AA
:100B2000FEB73196ADB7BEB712961C930E931197D0
:100B3000D382C282B582A4820E94FC248DB79EB764
:100B400006960FB6F8949EBF0FBE8DBFC7016DE12C
:100B500071E0A8010E947704C70160E271E04DE0F6
:100B600050E00E94770426960FB6F894DEBF0FBEC1
:100B7000CDBFCF91DF911F910F91FF90EF90DF904C
:100B8000CF90BF90AF900895AF92BF92CF92DF9277
:100B9000EF92FF920F931F93DF93CF93CDB7DEB702
:100BA000C054D0400FB6F894DEBF0FBECDBF6C016D
:100BB0005A0100D000D000D0EDB7FEB731968E01BB
:100BC0000F5F1F4FADB7BEB712961C930E931197D0
:100BD00095E1E92E91E0F92EF382E2827583648338
:100BE0000E94FC248DB79EB706960FB6F8949EBF60
:100BF0000FBE8DBFC60167E271E0A8010E947704B5
:100C000000D000D000D0EDB7FEB73196ADB7BEB77B
:100C100012961C930E931197F382E282B582A482FE
:100C20000E94FC248DB79EB706960FB6F8949EBF1F
:100C30000FBE8DBFC6016AE271E0A8010E94770471
:100C4000C05CDF4F0FB6F894DEBF0FBECDBFCF91B3
:100C5000DF911F910F91FF90EF90DF90CF90BF90A9
:100C6000AF90089580916A0B863061F0873020F450
:100C7000833009F063C028C0893049F08C3009F016
:100C80005DC038C080919F0B9091A00B4BC08091AC
:100C90006B0BE82FF0E0E034F10508F04FC0EA5BA1
:100CA000FF4FEE0FFF1F0590F491E02D0994809106
:100CB0007F0B9091800B36C08091750B9091760BD5
:100CC000909581959F4F2EC080916B0BE82FF0E09F
:100CD000E034F10598F5EA57FF4FEE0FFF1F05903E
:100CE000F491E02D09948091C20B9091C30B0E9466
:100CF0001605089580916B0BE82FF0E0E034F105C4
:100D0000E8F4EA53FF4FEE0FFF1F0590F491E02D3A
:100D100009948091C20B9091C30B04C08091950BF4
:100D20009091960B0E945005089580919B0B909195
:100D30009C0B909581959F4F0E9416050895809178
:100D40006B0B8C3340F48A3348F48B3239F08B329E
:100D500088F18E5201C08E53823060F580916A0B0B
:100D6000863051F0873018F4833061F514C0893033
:100D700041F08C3039F514C080919F0B9091A00BFD
:100D800007C080919F0B9091A00B909581959F4FEC
:100D90000E945005089580919B0B90919C0B07C079
:100DA00080919B0B90919C0B909581959F4F0E94F9
:100DB0001605089580919B0B90919C0B880F991FAD
:100DC0000E941605089580916B0B8C3340F48A3392
:100DD00048F48B3239F08B3288F18E5201C08E5339
:100DE000823060F580916A0B863051F0873018F4BC
:100DF000833079F514C0893041F08C3051F514C03E
:100E000080919F0B9091A00B07C080919F0B9091B8
:100E1000A00B909581959F4F0E9450050895809159
:100E20009B0B90919C0B07C080919B0B90919C0B0E
:100E3000909581959F4F0E941605089580919B0B78
:100E400090919C0B880F991F909581959F4F0E94C0
:100E50001605089580916A0B863061F0873020F482
:100E6000833009F06EC053C0893069F18C3009F0CD
:100E700068C05CC080916B0B8C3258F4893290F45E
:100E80008B3128F4893170F4863199F40BC0855286
:100E900007C08C3320F48A3328F48E5201C08E535D
:100EA000823038F48091950B9091960B0E945005FA
:100EB000089520919B0B30919C0BC901880F991FBD
:100EC000820F931F30C080916B0B8C3340F48A33B8
:100ED00048F48B3239F08B3278F08E5201C08E5349
:100EE000823050F48091750B9091760B909581959E
:100EF0009F4F0E9450050BC020919B0B30919C0B83
:100F0000C901880F991F820F931F0E941605209117
:100F10009B0B30919C0BC901880F991F820F931F67
:100F2000909581959F4F0E941605089520919B0BE7
:100F300030919C0BC901880F991F820F931F0E944B
:100F40001605089580916A0B863009F478C08730C1
:100F500020F4833009F079C027C0893021F08C302B
:100F600009F073C045C080916B0B6091CA0B709102
:100F7000CB0B8C3258F4893290F48B3128F48931C0
:100F800070F4863169F50BC0855207C08C3320F4AC
:100F90008A3328F48E5201C08E53823008F5882798
:100FA0009927861B970B21C080916B0B6091CA0B10
:100FB0007091CB0B8C3258F4893290F48B3128F439
:100FC000893170F4863181F40BC0855207C08C33AF
:100FD00020F48A3328F48E5201C08E53823020F4DC
:100FE000CB010E9416050895CB010E94500508957B
:100FF00080916B0B6091CA0B7091CB0B8C3258F4C3
:10100000893290F48B3128F4893170F4863199F467
:101010000BC0855207C08C3320F48A3328F48E52DB
:1010200001C08E53823038F488279927861B970B8E
:101030000E94160504C080E090E00E943305809174
:10104000CA0B9091CB0B0E945005089580916A0BBA
:101050008630A9F08930A9F580916B0B863038F481
:101060008430C0F4882359F08130D9F413C0803122
:10107000C0F0823178F08451823098F40BC06091D6
:10108000950B7091960B80919F0B9091A00B0E94F5
:101090003305089580919B0B90919C0B0E9416053F
:1010A00008958091950B9091960B60919F0B709194
:1010B000A00B709561957F4F909581959F4F0E94F1
:1010C0003305089580916A0B8630A9F0893089F53F
:1010D00080916B0B863038F48430C0F4882359F04B
:1010E0008130F1F413C08031D8F0823178F084512E
:1010F0008230B0F40BC060919F0B7091A00B809177
:10110000950B9091960B0E943305089580919B0B4F
:1011100090919C0B909581959F4F0E941605089584
:101120008091750B9091760B909581959F4F0E94C1
:101130005005089580916A0B863019F1873018F4B4
:10114000833099F513C0893019F08C3071F50EC0D9
:1011500080916B0B8823A9F080919B0B90919C0B45
:10116000909581959F4F0E941605089580916B0B75
:10117000813139F0823118F4823070F402C0853147
:1011800059F460919F0B7091A00B8091950B9091F9
:10119000960B0E943305089580919B0B90919C0BB8
:1011A000909581959F4F0E941605089580916A0B36
:1011B000863001F1873018F4833069F510C089302A
:1011C00019F08C3041F50BC080916B0B882391F0A6
:1011D00080919B0B90919C0B0E9416050895809125
:1011E0006B0B813139F0823118F4823070F402C017
:1011F000853159F46091950B7091960B80919F0BFE
:101200009091A00B0E943305089580919B0B9091C3
:101210009C0B0E941605089580916A0B8630E9F1B7
:10122000873020F4833009F049C029C0893089F023
:101230008C3009F043C080916B0B863018F48430F9
:1012400040F405C08031A0F0823118F08451823022
:1012500078F48091950B9091960B60919F0B709113
:10126000A00B709561957F4F909581959F4F1DC004
:1012700080919B0B90919C0B0E9416050895809184
:101280006B0B863018F4843040F405C0803180F058
:10129000823118F08451823058F46091950B70912E
:1012A000960B80919F0B9091A00B0E94330508959F
:1012B00080919B0B90919C0B0E9416050895809144
:1012C0006A0B863009F44BC0873020F4833009F074
:1012D0005AC006C08930A1F08C3009F054C029C032
:1012E00080916B0BE82FF0E0E034F10508F04BC083
:1012F000EA5FFE4FEE0FFF1F0590F491E02D099479
:1013000080919F0B9091A00B6091950B7091960B23
:10131000709561957F4F909581959F4F28C08091E2
:101320009B0B90919C0B909581959F4F0E94160569
:10133000089580916B0B873148F4843180F48630B6
:1013400018F4843060F409C0805107C0873220F45B
:10135000853228F4895101C08952823058F4609155
:101360009F0B7091A00B8091950B9091960B0E9412
:101370003305089580919B0B90919C0B90958195DE
:101380009F4F0E941605089580916A0B8630F9F0F0
:10139000873020F4833009F081C02CC0893021F0DF
:1013A0008C3009F07BC04EC080916B0B863038F4D6
:1013B0008430C0F5882359F0813091F433C08031F6
:1013C00078F0823178F18451823050F42BC06091F2
:1013D0009F0B7091A00B8091950B9091960B2FC055
:1013E0008091750B9091760B909581959F4F0E94FF
:1013F0005005089580916B0B8C3258F4893290F42B
:101400008B3128F4893170F4863189F40BC0855210
:1014100007C08C3320F48A3328F48E5201C08E53D7
:10142000823028F480919B0B90919C0B2AC0609194
:10143000950B7091960B80919F0B9091A00B0E9441
:101440003305089580916B0B8C3258F4893290F4F7
:101450008B3128F4893170F48631B1F40BC0855298
:1014600007C08C3320F48A3328F48E5201C08E5387
:10147000823050F480919B0B90919C0B90958195BC
:101480009F4F0E941605089560919F0B7091A00BCD
:101490008091950B9091960B0E9433050895809151
:1014A0006C0B843091F0853038F48230D9F0833081
:1014B00088F4813059F51FC08630A1F08630D8F00D
:1014C000873021F580E090E069C08091CA0B90914F
:1014D000CB0B64C08091CA0B9091CB0B90958195FA
:1014E0009F4F5CC06091CA0B7091CB0B660F771F4A
:1014F00080E090E008C08091CA0B9091CB0B880FE0
:10150000991F60E070E00E943305089580916A0B96
:10151000863061F0873020F4833009F052C048C033
:101520008930E9F08C3009F04CC03BC080916B0BE6
:101530008430B9F12091CA0B3091CB0B853018F46F
:10154000813059F405C0863119F0893131F429C050
:1015500088279927821B930B28C0C9011FC080913F
:101560006B0B843169F02091CA0B3091CB0B853124
:1015700018F4813179F40CC0863251F0893251F47B
:101580008091CA0B9091CB0B909581959F4F0DC088
:10159000C9010BC088279927821B930B0E94500515
:1015A00008958091CA0B9091CB0B0E941605089567
:1015B0008091CA0B9091CB0B909581959F4F0E9483
:1015C0001605089580916E0B8F3D09F452C0803E40
:1015D000E0F4803860F48E3708F04BC08F3309F4A4
:1015E00048C08C37C1F18F3109F049C042C08F3BF0
:1015F00009F43FC0803C20F48F3909F040C039C065
:10160000873CA1F18F3CD9F534C0873FA9F1883FD1
:1016100060F48F3E59F1803F18F4873E81F52CC06D
:10162000813F51F1833F59F527C08E3F28F48B3F0E
:1016300018F5893F21F520C08E3F69F08F3FF9F4FE
:101640008091680B9091690B9093650B8093640B6C
:101650000E944F0A08958091680B9091690B9093B6
:10166000650B8093640B0E94320608950E942A073E
:1016700008950E94E30608950E949F0608958091B0
:10168000AB0B882311F48EEF21C08091AD0B882322
:1016900011F48DEF1BC08091AC0B882311F48FE700
:1016A00015C08091B20B882311F48FEB0FC080918D
:1016B000B10B8823A9F08091AF0B882311F48FED33
:1016C00005C08091B00B882321F487EF80936E0BC7
:1016D00008958091AE0B882319F48FEE80936E0BE2
:1016E00008950E94171D2EC08091750B9091760B66
:1016F00007C08091750B9091760B909581959F4FC7
:101700000E9450051FC06091750B7091760B70950B
:1017100061957F4F0CC08091750B9091760B9095E1
:1017200081959F4F0BC06091750B7091760B80E097
:1017300090E006C08091750B9091760B60E070E0B0
:101740000E9433050E94E01D1D98159821B1229535
:10175000269521702093B40B1C98149831B13295C2
:1017600031703093B60B1F98179891B1991F992734
:10177000991F9093B50B1E98169881B18295869506
:10178000869581708093B30B990F982B220F220FAF
:10179000220F292B330F330F322B3093BF0B3730EF
:1017A00049F2383080F4333029F2343030F43130BB
:1017B00009F4B1CF3230D9F4BDCF343009F4B3CF0E
:1017C0003630A9F491CF3B3009F4A5CF3C3030F44A
:1017D000383009F498CF393051F48BCF3D3009F4CB
:1017E00092CF3D3008F49FCF3E3009F49CCF08954E
:1017F0001F920F920FB60F920BB60F9211242F93D8
:101800003F934F935F936F937F938F939F93AF9388
:10181000BF93EF93FF93F8940E94710B7894FF911C
:10182000EF91BF91AF919F918F917F916F915F9158
:101830004F913F912F910F900BBE0F900FBE0F90C5
:101840001F9018951F920F920FB60F920BB60F9222
:1018500011242F933F934F935F936F937F938F93B5
:101860009F93AF93BF93EF93FF93F8940E94710BF4
:101870007894FF91EF91BF91AF919F918F917F915C
:101880006F915F914F913F912F910F900BBE0F90F1
:101890000FBE0F901F9018951F920F920FB60F92C8
:1018A0000BB60F9211242F933F934F935F936F9337
:1018B0007F938F939F93AF93BF93EF93FF93F8948E
:1018C0000E94710B7894FF91EF91BF91AF919F911E
:1018D0008F917F916F915F914F913F912F910F90D9
:1018E0000BBE0F900FBE0F901F9018951F920F9276
:1018F0000FB60F920BB60F9211242F933F934F9375
:101900005F936F937F938F939F93AF93BF93EF9367
:10191000FF93F8940E94710B7894FF91EF91BF911F
:10192000AF919F918F917F916F915F914F913F9177
:101930002F910F900BBE0F900FBE0F901F90189518
:10194000BF92CF92DF92EF92FF920F931F93F89482
:101950008AB78FEF8ABF89B7806F89BF78948FEE7F
:10196000B82E07EFD02E1FEDC12EBFEBEB2EAFE749
:10197000FA2E1DEF0EEF0E94E01D0E94771D8DE0F4
:101980000E94DB0280916D0B873E09F450C0883EB7
:10199000D8F4803858F48E3708F043C08F33C1F143
:1019A0008C3781F18F3109F045C032C0873C69F135
:1019B000883C28F48F3961F18F3BE1F529C08F3CD9
:1019C00099F18F3DB9F530C0893F29F18A3F60F424
:1019D000813F09F1823F18F48F3E61F516C0833FC5
:1019E000D1F0873F39F523C08E3F28F48C3FB0F407
:1019F0008B3F01F510C08E3F29F08F3FD9F40E9434
:101A0000E20AB9CF0E943206B6CF0E94C409B3CF12
:101A10000E945F09B0CF0E940C09ADCF0E94D6088A
:101A2000AACF0E949A08A7CF0E946208A4CF0E9462
:101A30002608A1CF8091AB0B882319F400936D0B7E
:101A40009ACF8091AD0B882319F410936D0B93CF2F
:101A50008091AC0B882319F4F0926D0B8CCF8091A0
:101A6000B20B882319F4E0926D0B85CF8091B10BF6
:101A7000882309F480CF8091AF0B882319F4C0929A
:101A80006D0B79CF8091B00B882319F4D0926D0B38
:101A900072CF8091AE0B882309F06DCFB0926D0BA1
:101AA0006ACF2F923F924F925F926F927F928F9266
:101AB0009F92AF92BF92CF92DF92EF92FF920F93DD
:101AC0001F93CF93DF935C017B018A013B01660C7E
:101AD000771C680E791E1B010894211C311CC8015B
:101AE0008E0D9F1D62E070E00E947824FB01EE0FD6
:101AF000FF1FEA0DFB1D40805180C701F301A101CA
:101B0000E80104C032964F5F5F4F0196BC018080B0
:101B100091808414950434F0DE01AA0FBB1FAA0D36
:101B2000BB1D05C0801791076CF3F6CF21976D019F
:101B30002D913C9111974216530624F41297EC16FE
:101B4000FD06A4F3C817D90754F031832083D601CA
:101B50008D929C92BA012197C417D5079CF6601705
:101B6000710724F4C501A8010E94510D0C171D072F
:101B700014F48E01B4CFDF91CF911F910F91FF909C
:101B8000EF90DF90CF90BF90AF909F908F907F901D
:101B90006F905F904F903F902F900895882321F091
:101BA000813009F08FC1C7C084E290E00E943327E2
:101BB00090937E0B80937D0B82E690E00E9433270A
:101BC0009093A80B8093A70B84E690E00E943327A4
:101BD0009093CD0B8093CC0B8EE290E00E94332744
:101BE00090938A0B8093890B80E390E00E943327C7
:101BF0009093940B8093930B86E690E00E9433279A
:101C00009093670B8093660B8CE390E00E943327E0
:101C10008093740B8EE390E00E9433279093C70B60
:101C20008093C60B80E490E00E9433279093900B42
:101C300080938F0B82E490E00E9433279093A00B57
:101C400080939F0B84E490E00E9433279093C30B12
:101C50008093C20B86E490E00E9433279093960B0A
:101C60008093950B88E490E00E9433279093800B3B
:101C700080937F0B8AE490E00E94332790937A0B45
:101C80008093790B8CE490E00E9433279093CB0BE8
:101C90008093CA0B8EE490E00E9433279093920BBE
:101CA0008093910B8AE590E00E9433279093760B06
:101CB0008093750B8CE590E00E94332790937C0B0A
:101CC00080937B0B8EE590E00E9433279093690B05
:101CD0008093680B80E690E00E94332790939C0BE2
:101CE00080939B0B88E690E00E9433279093710BC2
:101CF0008093700B82E390E00E9433279093C90B8E
:101D00008093C80B84E390E00E94332790939A0B52
:101D10008093990B80E590E00E9433279093780B95
:101D20008093770B82E590E00E9433279093A40B79
:101D30008093A30B089560917D0B70917E0B84E2DC
:101D400090E00E9439276091A70B7091A80B82E662
:101D500090E00E9439276091CC0B7091CD0B84E606
:101D600090E00E9439276091890B70918A0B8EE276
:101D700090E00E9439276091930B7091940B80E35F
:101D800090E00E9439276091660B7091670B86E6A0
:101D900090E00E9439276091740B8CE390E070E032
:101DA0000E9439276091C60B7091C70B8EE390E0BB
:101DB0000E94392760918F0B7091900B80E490E026
:101DC0000E94392760919F0B7091A00B82E490E0F4
:101DD0000E9439276091C20B7091C30B84E490E09C
:101DE0000E9439276091950B7091960B86E490E0E4
:101DF0000E94392760917F0B7091800B88E490E0FE
:101E00000E9439276091790B70917A0B8AE490E0F7
:101E10000E9439276091CA0B7091CB0B8CE490E043
:101E20000E9439276091910B7091920B8EE490E0A3
:101E30000E9439276091750B7091760B8AE590E0CE
:101E40000E94392760917B0B70917C0B8CE590E0B0
:101E50000E9439276091680B7091690B8EE590E0C4
:101E60000E94392760919B0B70919C0B80E690E05B
:101E70000E9439276091700B7091710B88E690E099
:101E80000E9439276091C80B7091C90B82E390E0E2
:101E90000E9439276091990B70919A0B84E390E02E
:101EA0000E9439276091770B7091780B80E590E064
:101EB0000E9439276091A30B7091A40B82E590E0FA
:101EC0000E94392708952F923F924F925F926F920E
:101ED0007F928F929F92AF92BF92CF92DF92EF92BA
:101EE000FF920F931F93DF93CF93CDB7DEB7CE54FE
:101EF000D0400FB6F894DEBF0FBECDBFDE01119605
:101F0000E3E3F8E086E001900D928150E1F7DE0115
:101F10001796EDE2F8E086E001900D928150E1F72E
:101F200008C080E197E2F8013197F1F70197D9F7FE
:101F300002C000E911E084E00E9454048050924005
:101F400084F38EE291E00E94E70284E491E00E9433
:101F5000E7028824992420E9422E21E0522E1E0116
:101F60000894211C311C82E591E00E94E702C40123
:101F70000E94730387E591E00E94E7027401EE0C72
:101F8000FF1C8FE190E08C0F9D1FE80EF91EAA2424
:101F9000BB24E7E0F0E0EC0FFD1FEA0DFB1D8081A4
:101FA00091810E94E70284E00E9454048050924094
:101FB000D4F784EF91E0F2013197F1F70197D9F767
:101FC00084E00E945404805092406CF7F701118223
:101FD0001082F101EA0DFB1D7080CC24DD24D701B5
:101FE0000D911C91872D0E945404800F911FF701C1
:101FF0009183808324EF31E0F2013197F1F7215092
:102000003040D1F70894C11CD11CFAE0CF16D1049E
:1020100031F76AE070E00E947824CB01D7016C931D
:1020200011969C930E94730384E00E945404805094
:102030009240D4F3E2E0F0E0AE0EBF1E28E030E0C4
:10204000E20EF31E36E0A316B10409F0A2CF089405
:10205000811C911C84E08816910409F084CF89E5E5
:1020600091E00E94E70287E691E00E94E70287E59F
:1020700091E00E94E70289E1A82EB12CAC0EBD1EB2
:10208000CC24DD2407E0202E312C2C0E3D1E10E93F
:10209000612E11E0712E2E010894411C511CF1019A
:1020A000EC0DFD1D808191810E94E70284E00E9479
:1020B000540480509240D4F784EF91E0F3013197BB
:1020C000F1F70197D9F784E00E94540480509240C0
:1020D0006CF7F50111821082F201EC0DFD1D90806C
:1020E00000E010E0EE24FF24892D0E945404080F24
:1020F000191F84EF91E0F3013197F1F70197D9F7B8
:102100000894E11CF11CFAE0EF16F10469F7C8012C
:102110006AE070E00E947824CB01D5016C9311969F
:102120009C930E94730384E00E9454048050924068
:10213000D4F3E2E0F0E0CE0EDF1EAE0EBF1EF6E0FE
:10214000CF16D10409F0ABCF8CE691E00E94E702F4
:1021500088249924B0E94B2EB1E05B2E1E0108942F
:10216000211C311C8AE791E00E94E702C4010E9411
:10217000730387E591E00E94E7027401EE0CFF1CF7
:1021800027E330E02C0F3D1FE20EF31EAA24BB24F0
:10219000E7E0F0E0EC0FFD1FEA0DFB1D808191816F
:1021A0000E94E70284E00E94540480509240D4F7D9
:1021B00084EF91E0F2013197F1F70197D9F784E0CC
:1021C0000E945404805092406CF7F70111821082F3
:1021D000F101EA0DFB1D7080CC24DD24D7010D91A7
:1021E0001C91872D0E945404800F911FF701918349
:1021F000808324EF31E0F2013197F1F72150304034
:10220000D1F70894C11CD11CFAE0CF16D10431F7E4
:102210006AE070E00E947824CB01D7016C9311969C
:102220009C930E94730384E00E9454048050924067
:10223000D4F3E2E0F0E0AE0EBF1E28E030E0E20EA4
:10224000F31E36E0A316B10409F0A2CF0894811C56
:10225000911C84E08816910409F084CF8FE791E007
:102260000E94E70200E010E0FFE1CF2ED12CCC0E5F
:10227000DD1EE7E3EE2EF12CEC0EFD1EC601800FF5
:10228000911F60E070E043E050E00E94510DC701F3
:10229000800F911F60E070E043E050E00E94510D1C
:1022A000085F1F4F0831110549F78FE991E00E943F
:1022B000E7028BEA91E00E94E70271E2E72EF12C3F
:1022C000EC0EFD1E8E01075C1F4FCC24DD246DE05B
:1022D000662E712C6C0E7D1E53E1852E912C8C0E7A
:1022E0009D1E5801F301EC0DFD1DD70112968D9135
:1022F0009C9113972D913C91820F931F62E070E0A7
:102300000E94782471836083F401EC0DFD1DD801D7
:1023100012968D919C9113972D913C91820F931F52
:1023200062E070E00E94782471836083E8E0F0E06E
:10233000EE0EFF1E22E030E0C20ED31E085F1F4FDC
:10234000EA14FB0479F683EC91E00E94E70280ED49
:1023500091E00E94E7020D851E85CB88DC88E98C20
:10236000FA8CF601E00FF11FEE0DFF1D8D899E899D
:10237000DF01A81BB90BCD012F853889821B930B78
:102380002B8D3C8D821B930B63E070E00E947824C0
:1023900070938A0B6093890B8F89988DE81BF90BDA
:1023A00089899A89E81BF90B8D8D9E8D9F01281BC9
:1023B000390BC90163E070E00E9478247093940B9C
:1023C0006093930B89EE91E00E94E702C701800FB2
:1023D000911F62E070E00E94782470937E0B6093FE
:1023E0007D0B85EF91E00E94E7021093A80B00930C
:1023F000A70BD092CD0BC092CC0B82E690E0B80137
:102400000E9439276091CC0B7091CD0B84E690E04F
:102410000E94392760917D0B70917E0B84E290E0E1
:102420000E9439276091890B70918A0B8EE290E0AF
:102430000E9439276091930B7091940B80E390E098
:102440000E94392786E092E00E94E70283E192E051
:102450000E94E702C25BDF4F0FB6F894DEBF0FBEEB
:10246000CDBFCF91DF911F910F91FF90EF90DF9043
:10247000CF90BF90AF909F908F907F906F905F9024
:102480004F903F902F900895AF92BF92CF92DF92DE
:10249000EF92FF920F931F9383E292E00E94E70274
:1024A0008AE692E00E94E70280917B0B90917C0B80
:1024B0000E94730307E712E0C8010E94E7028AE75F
:1024C00092E00E94E7028091680B9091690B0E9454
:1024D0007303C8010E94E70286E892E00E94E702C7
:1024E00053E9E52E52E0F52EC7010E94E7024FE9BD
:1024F000A42E42E0B42EC5010E94E7028091C80BD1
:102500009091C90B0E94730335EAC32E32E0D32E9B
:10251000C6010E94E7028091990B90919A0B0E944C
:1025200073038BEA92E00E94E7028091700B909116
:10253000710B0E947303C8010E94E70287EB92E0CF
:102540000E94E702C7010E94E7028091770B9091F9
:10255000780B0E94730384EC92E00E94E702809162
:10256000A30B9091A40B0E947303C8010E94E70281
:1025700082ED92E00E94E7028FED92E00E94E70276
:10258000C5010E94E7028091890B90918A0B0E94FD
:102590007303C6010E94E7028091930B9091940B04
:1025A0000E9473038FEE92E00E94E7028FEF92E0A9
:1025B0000E94E70280917D0B90917E0B0E94730335
:1025C00085E093E00E94E7028091A70B9091A80B11
:1025D0000E9473038BE093E00E94E7028091CC0B92
:1025E0009091CD0B0E94730381E193E00E94E7027A
:1025F0008091660B9091670B0E94730382E293E0D7
:102600000E94E7028EE293E00E94E702C5010E9469
:10261000E7028091C60B9091C70B0E947303C6011D
:102620000E94E70280918F0B9091900B0E947303A0
:102630008CE393E00E94E7028091750B9091760BFA
:102640000E9473038DE493E00E94E70280919B0B4C
:1026500090919C0B0E9473038EE593E00E94E70229
:102660008091CA0B9091CB0B0E9473038FE693E08D
:102670000E94E7028091910B9091920B0E9473034C
:1026800080E893E00E94E70280E993E00E94E7027D
:1026900080917F0B9091800B0E94730388E993E0F7
:1026A0000E94E7028091950B9091960B0E94730314
:1026B00080EA93E00E94E7028091C20B9091C30BE5
:1026C0000E9473038CEA93E00E94E70280919F0BC3
:1026D0009091A00B0E94730384EB93E00E94E702A9
:1026E0008091790B90917A0B0E94730385EC93E0B3
:1026F0000E94E7021F910F91FF90EF90DF90CF9023
:10270000BF90AF900895CF93DF938BE094E00E9449
:10271000E70289E194E00E94E70288E294E00E94E7
:10272000E70289E394E00E94E7028AE494E00E94D1
:10273000E7028BE594E00E94E7028CE694E00E94B9
:10274000E70285E794E00E94E7020E94FE02809380
:10275000CE0B0E94DB029091CE0B892F80538630E6
:10276000A0F6903309F460C2933309F4AFC09433F8
:1027700028F4913349F0923341F673C0943309F44D
:10278000DAC0953311F644C18BE794E00E94E7026A
:102790008BE894E00E94E7021092D00B1092CF0BCE
:1027A00017C00E94FE02CF52D44F8883E091CF0B16
:1027B000F091D00BEF52F44F80810E94DB028091A8
:1027C000CF0B9091D00B01969093D00B8093CF0BB1
:1027D000C091CF0BD091D00BC230D10514F3109221
:1027E000D30B81ED9BE00E94D6249093C70B80937E
:1027F000C60B8436910560F68DE994E00E94E702ED
:102800001092D00B1092CF0B17C00E94FE02CF5235
:10281000D44F8883E091CF0BF091D00BEF52F44F5F
:1028200080810E94DB028091CF0B9091D00B0196AA
:102830009093D00B8093CF0BC091CF0BD091D00B46
:10284000C230D10514F31092D30B81ED9BE00E94AE
:10285000D6249093900B80938F0B8436910560F66D
:10286000DEC18CEB94E00E94E7021092D00B109234
:10287000CF0B17C00E94FE02CF52D44F8883E09145
:10288000CF0BF091D00BEF52F44F80810E94DB020E
:102890008091CF0B9091D00B01969093D00B8093A9
:1028A000CF0BC091CF0BD091D00BC530D10514F315
:1028B0001092D60B81ED9BE00E94D6249093760B6C
:1028C0008093750B81529E4480F6A9C18DED94E0F2
:1028D0000E94E7021092D00B1092CF0B17C00E94FB
:1028E000FE02CF52D44F8883E091CF0BF091D00BF2
:1028F000EF52F44F80810E94DB028091CF0B9091C8
:10290000D00B01969093D00B8093CF0BC091CF0B3F
:10291000D091D00BC530D10514F31092D60B81EDB8
:102920009BE00E94D62490939C0B80939B0B81523A
:102930009E4480F674C18EEF94E00E94E70280E12D
:1029400095E00E94E7021092D00B1092CF0B17C0B7
:102950000E94FE02CF52D44F8883E091CF0BF091BA
:10296000D00BEF52F44F80810E94DB028091CF0B9D
:102970009091D00B01969093D00B8093CF0BC09188
:10298000CF0BD091D00BC530D10514F31092D60BDC
:1029900081ED9BE00E94D6249093CB0B8093CA0BD1
:1029A00081529E4480F68AE295E00E94E7021092EE
:1029B000D00B1092CF0B17C00E94FE02CF52D44F03
:1029C0008883E091CF0BF091D00BEF52F44F8081D0
:1029D0000E94DB028091CF0B9091D00B01969093D7
:1029E000D00B8093CF0BC091CF0BD091D00BC530C3
:1029F000D10514F31092D60B81ED9BE00E94D624F2
:102A00009093920B8093910B8151974280F607C16E
:102A10008AE495E00E94E7028CE595E00E94E702D7
:102A20001092D00B1092CF0B17C00E94FE02CF5213
:102A3000D44F8883E091CF0BF091D00BEF52F44F3D
:102A400080810E94DB028091CF0B9091D00B019688
:102A50009093D00B8093CF0BC091CF0BD091D00B24
:102A6000C530D10514F31092D60B81ED9BE00E9486
:102A7000D6249093800B80937F0B81529E4480F6E6
:102A800086E795E00E94E7021092D00B1092CF0BE0
:102A900017C00E94FE02CF52D44F8883E091CF0B23
:102AA000F091D00BEF52F44F80810E94DB028091B5
:102AB000CF0B9091D00B01969093D00B8093CF0BBE
:102AC000C091CF0BD091D00BC530D10514F310922B
:102AD000D60B81ED9BE00E94D6249093960B8093B9
:102AE000950B81529E4480F680E995E00E94E702B2
:102AF0001092D00B1092CF0B17C00E94FE02CF5243
:102B0000D44F8883E091CF0BF091D00BEF52F44F6C
:102B100080810E94DB028091CF0B9091D00B0196B7
:102B20009093D00B8093CF0BC091CF0BD091D00B53
:102B3000C530D10514F31092D60B81ED9BE00E94B5
:102B4000D6249093C30B8093C20B81529E4480F68F
:102B50008AEA95E00E94E7021092D00B1092CF0B08
:102B600017C00E94FE02CF52D44F8883E091CF0B52
:102B7000F091D00BEF52F44F80810E94DB028091E4
:102B8000CF0B9091D00B01969093D00B8093CF0BED
:102B9000C091CF0BD091D00BC530D10514F310925A
:102BA000D60B81ED9BE00E94D6249093A00B8093DE
:102BB0009F0B81529E4480F684EC95E00E94E702D0
:102BC0001092D00B1092CF0B17C00E94FE02CF5272
:102BD000D44F8883E091CF0BF091D00BEF52F44F9C
:102BE00080810E94DB028091CF0B9091D00B0196E7
:102BF0009093D00B8093CF0BC091CF0BD091D00B83
:102C0000C530D10514F31092D60B81ED9BE00E94E4
:102C1000D62490937A0B8093790B97FDD1CF8FEACE
:102C200094E00E94E70271CDDF91CF910895CF9398
:102C3000DF9384EE95E00E94E70282EF95E00E9428
:102C4000E7028FEF95E00E94E7028CE694E00E9495
:102C5000E70285E794E00E94E7020E94FE0280936B
:102C6000CE0B0E94DB029091CE0B892F80538430D3
:102C700000F7903309F4B0C0913319F09233C9F6DC
:102C800071C080E196E00E94E70282E296E00E9435
:102C9000E7021092D00B1092CF0B17C00E94FE02D9
:102CA000CF52D44F8883E091CF0BF091D00BEF52ED
:102CB000F44F80810E94DB028091CF0B9091D00B6A
:102CC00001969093D00B8093CF0BC091CF0BD091F6
:102CD000D00BC530D10514F31092D60B81ED9BE0DB
:102CE0000E94D6249093C90B8093C80B815F984DA6
:102CF0008F519E4450F68AE396E00E94E7021092BC
:102D0000D00B1092CF0B17C00E94FE02CF52D44FAF
:102D10008883E091CF0BF091D00BEF52F44F80817C
:102D20000E94DB028091CF0B9091D00B0196909383
:102D3000D00B8093CF0BC091CF0BD091D00BC5306F
:102D4000D10514F31092D60B81ED9BE00E94D6249E
:102D500090939A0B8093990B815F984D8F519E446D
:102D600050F635C082E596E00E94E7021092D00B43
:102D70001092CF0B17C00E94FE02CF52D44F88830F
:102D8000E091CF0BF091D00BEF52F44F80810E9475
:102D9000DB028091CF0B9091D00B01969093D00BDA
:102DA0008093CF0BC091CF0BD091D00BC430D10505
:102DB00014F31092D50B81ED9BE00E94D6249C0168
:102DC0009093710B8093700B2051374258F68FEA25
:102DD00094E00E94E7022DCFDF91CF9108958AE61B
:102DE00096E00E94E7020E94FE028093D10B0E94AF
:102DF000DB021092D20B81ED9BE00E94D6249093CF
:102E0000670B8093660B0A9750F78FEA94E00E9455
:102E1000E7020895CF93DF9381E896E00E94E702EE
:102E20001092D00B1092CF0B17C00E94FE02CF520F
:102E3000D44F8883E091CF0BF091D00BEF52F44F39
:102E400080810E94DB028091CF0B9091D00B019684
:102E50009093D00B8093CF0BC091CF0BD091D00B20
:102E6000C430D10514F31092D50B81ED9BE00E9484
:102E7000D6249C019093690B8093680B20513742B4
:102E800058F68FEA94E00E94E702DF91CF9108950F
:102E9000CF93DF9380EA96E00E94E7021092D00B76
:102EA0001092CF0B17C00E94FE02CF52D44F8883DE
:102EB000E091CF0BF091D00BEF52F44F80810E9444
:102EC000DB028091CF0B9091D00B01969093D00BA9
:102ED0008093CF0BC091CF0BD091D00BC330D105D5
:102EE00014F31092D40B81ED9BE00E94D6249C0138
:102EF00090937C0B80937B0B285E334058F68FEACF
:102F000094E00E94E702DF91CF910895CF93DF9381
:102F10008DEB96E00E94E70282EF95E00E94E702C7
:102F20008BEC96E00E94E7028CE694E00E94E702B8
:102F300085E794E00E94E7020E94FE028093CE0B98
:102F40000E94DB029091CE0B892F8053843000F7D2
:102F5000903309F475C0913319F09233C9F636C035
:102F60008CED96E00E94E7021092D00B1092CF0BEE
:102F700017C00E94FE02CF52D44F8883E091CF0B3E
:102F8000F091D00BEF52F44F80810E94DB028091D0
:102F9000CF0B9091D00B01969093D00B8093CF0BD9
:102FA000C091CF0BD091D00BC430D10514F3109247
:102FB000D50B81ED9BE00E94D6249C019093780B69
:102FC0008093770B2051374258F635C08BEF96E04F
:102FD0000E94E7021092D00B1092CF0B17C00E94F4
:102FE000FE02CF52D44F8883E091CF0BF091D00BEB
:102FF000EF52F44F80810E94DB028091CF0B9091C1
:10300000D00B01969093D00B8093CF0BC091CF0B38
:10301000D091D00BC430D10514F31092D50B81EDB3
:103020009BE00E94D6249C019093A40B8093A30B59
:103030002051374258F68FEA94E00E94E70268CFA9
:10304000DF91CF9108951F930E94190380E197E2C9
:1030500020E931E0F9013197F1F70197D9F789E1DA
:1030600097E00E94E70280E00E94CE0D8AE397E09D
:103070000E94E7021EE61093D10B1093D20B10931F
:10308000D30B1093D40B1093D50B87E497E00E94D9
:10309000E7028CE597E00E94E7028DE697E00E9448
:1030A000E7028DE797E00E94E7028DE897E00E9433
:1030B000E7028DE997E00E94E7028EEA97E00E941E
:1030C000E7028EEB97E00E94E7028EEC97E00E9409
:1030D000E7028EED97E00E94E70287EE97E00E94FC
:1030E000E70285E794E00E94E7020E94FE028093D7
:1030F000CE0B0E94DB029091CE0B892F815388303A
:1031000038F09C3609F448C0973709F0BECF3AC072
:10311000953361F1963370F49233F9F0933320F4E0
:10312000913309F0A8CF16C09333D1F0943309F04E
:10313000A2CF19C0983319F1993330F49633C9F0FE
:10314000973309F098CF18C09C3631F1973709F0C2
:1031500092CF18C00E9444128ECF0E9486178BCF48
:103160000E94630F88CF0E94EF1685CF0E944817F8
:1031700082CF0E940A177FCF0E9417167CCF0E9431
:10318000831379CF8FEE97E00E94E70281E00E94DF
:10319000CE0D8EEF97E009C08AE098E00E94E7022A
:1031A00080E00E94CE0D8AE397E00E94E70263CFA1
:1031B0008091BF0B863091F1873018F4833089F508
:1031C0002DC0893059F18C3061F528C08091BB0B3E
:1031D0009091BC0B8217930774F486E01FC02417EC
:1031E00035074CF48091BB0B9091BC0B2817390725
:1031F00014F489E013C08091BB0B9091BC0B28178D
:1032000039072CF44217530714F483E007C024173E
:1032100035079CF48217930784F48CE080936A0B43
:1032200008952091B70B3091B80B4091B90B509194
:10323000BA0B421753079CF6C9CF0895CF93DF937B
:10324000E091B70BF091B80B4091B90B5091BA0BCC
:103250006091BB0B7091BC0BA091870BB091880B58
:103260009A012E0F3F1F260F371FCD01880F991F80
:103270008A0F9B1F281739070CF46EC0C0917D0B75
:10328000D0917E0BCE17DF0784F02091810B309117
:10329000820BCA018E1B9F0B2817390734F0CB0114
:1032A0008E1B9F0B2817390724F480916C0B8460C8
:1032B0000AC0AE17BF0724F480916C0B80FD05C0D7
:1032C00080916C0B8B7F80936C0BC417D50784F0B7
:1032D0002091810B3091820BCF01841B950B281715
:1032E000390734F0CB01841B950B2817390724F4D8
:1032F00080916C0B82600AC0A417B50724F48091FA
:103300006C0B80FD05C080916C0B8D7F80936C0BE6
:10331000C617D70784F02091810B3091820BCF0123
:10332000861B970B2817390734F0CA01861B970BA9
:103330002817390724F480916C0B81600AC0A61706
:10334000B70724F480916C0B80FD08C080916C0B52
:103350008E7F80936C0B02C010926C0B80917D0B62
:1033600090917E0B8417950734F08E179F071CF001
:103370008617970734F410926B0B89E080936A0BE1
:1033800004C08091BE0B80936B0BDF91CF910895A9
:103390002091B70B3091B80B4091C40B5091C50BE5
:1033A000421753071CF41092BE0B15C08091870B77
:1033B0009091880B8217930714F480E10AC08091E2
:1033C0009D0B90919E0B8217930714F480E201C02D
:1033D00080E38093BE0B2091B90B3091BA0B42175A
:1033E0005307DCF08091870B9091880B821793072D
:1033F00024F48091BE0B84600EC080919D0B90914F
:103400009E0B8217930724F48091BE0B886003C043
:103410008091BE0B8C608093BE0B2091BB0B3091D2
:10342000BC0B42175307DCF08091870B9091880BFF
:103430008217930724F48091BE0B81600EC08091A7
:103440009D0B90919E0B8217930724F48091BE0BE5
:10345000826003C08091BE0B83608093BE0B0E948C
:103460001E190895C598BD9886B38295869581707A
:103470008093AB0BC698BE9886B382958695869549
:1034800081708093AD0B1B98139881B186958695BA
:10349000869581708093B10B1A98129881B18695A8
:1034A000869581708093B00B94988C9880B38295A8
:1034B00081708093AE0B9198899880B386958170C6
:1034C0008093AF0BC798BF9886B3881F8827881F43
:1034D0008093B20B96988E9880B382958695869548
:1034E00081708093AC0B1D98159881B1829586955B
:1034F00081708093B40B1C98149881B1829581706F
:103500008093B60B1F98179881B1881F8827881F52
:103510008093B50B1E98169881B1829586958695F5
:1035200081708093B30B80E067EB7BE00E943104F5
:1035300082E069EB7BE00E94310481E06BEB7BE091
:103540000E9431048091890B90918A0B2091B90BD4
:103550003091BA0B820F931F9093BA0B8093B90BE3
:103560008091930B9091940B2091BB0B3091BC0BED
:10357000820F931F9093BC0B8093BB0B9091AC0B6D
:103580009795992797958091B20B8295880F880F10
:10359000807C892B9091AB0B892B9091AF0B9295EE
:1035A000990F907E982B8091AE0B8295807F892B0E
:1035B0009091B00B990F990F990F982B8091B10BA7
:1035C000880F880F892B4091AD0B440F482B4093F7
:1035D000BD0B8091B40B880F880F880F9091B60BAC
:1035E000990F990F982B8091B30B982B8091B50B65
:1035F000880F892B8093BF0B4F3F59F42091A90B63
:103600003091AA0B8091640B9091650B8217930700
:1036100008F52091A90B3091AA0B8091640B909131
:10362000650B8217930718F481E08093740B8091E7
:103630006D0B80936E0B8091850B9091860B892B7F
:10364000C9F01092860B1092850B1092AA0B109263
:10365000A90B10C08091850B9091860B892B51F49A
:1036600081E090E09093860B8093850B80916D0BA9
:1036700080936E0B40936D0B0895AF92BF92CF92E3
:10368000DF92EF92FF920F931F93CF93DF93C0E4EB
:10369000DCE91B98139881B1869586958695817093
:1036A0008093B10B10E01BC089E398E00E94E70211
:1036B0001B98139881B18695869586958170809325
:1036C000B10BC798BF9886B3881F8827881F80933F
:1036D000B20B1B3049F01F5FCE010197F1F78091CB
:1036E000B10B8823B1F6E0CF6091990B70919A0BE2
:1036F0008091C80B9091C90B0E9433056091700BAB
:103700007091710B80E090E00E940A225B016C01D5
:1037100020E030E04AE755E40E942C207B018C0138
:1037200020E030E040E85FE30E94862188231CF41B
:1037300061E070E024C0C801B70120E03FEF4FE72F
:1037400057E40E9426211816B4F4C601B50120E002
:1037500030E040E251E40E942C200E94561E80E995
:1037600091E005C0FC013197F1F76150704061159F
:103770007105C1F707C0C801B7010E94561ECB01F1
:103780000197F1F780E090E00E945005DF91CF9122
:103790001F910F91FF90EF90DF90CF90BF90AF906F
:1037A00008950F931F9389E498E00E94E70280E058
:1037B0000E94CE0D1092BE0B8091680B9091690B08
:1037C0009093650B8093640B0091A70B1091A80B4D
:1037D000E091CC0BF091CD0B6091660B7091670B73
:1037E000C8018E1B9F0B0E9478249B012E0F3F1F48
:1037F00030939E0B20939D0BC801821B930B63E0BB
:1038000070E00E947824CB01260F371F3093880B7D
:103810002093870B260F371F3093C50B2093C40BC3
:103820000A969093820B8093810B84E380938E0B96
:103830008FEF80938D0B81E090E09093840B8093C9
:10384000830B1F910F910895F8940E9419030E9411
:1038500073020E94D11B4091790B50917A0B809199
:10386000C60B9091C70BBA010E94C4054091790B19
:1038700050917A0B80918F0B9091900BBA010E941E
:10388000C4054091750B5091760B8091C60B9091B9
:10389000C70B60E070E00E9454054091750B509199
:1038A000760B80918F0B9091900B60E070E00E94FE
:1038B00054050E943D1B7894089510923B0C109281
:1038C0003C0C089520E090913B0C80913C0C9817A3
:1038D00009F421E0822F089540E020913B0C30E074
:1038E00080913C0C90E0019664E670E00E947824A0
:1038F0002817390709F441E0842F089580913B0C83
:1039000090E0019664E670E00E94782480933B0C7E
:10391000E7EDFBE0E80FF11D80810895282F8091ED
:103920003C0C90E0019664E670E00E94782480935D
:103930003C0CE7EDFBE0E80FF11D208308950F93A9
:103940001F93CF93DF93062FEC0110E00AC09091F4
:103950003B0C80913C0C981739F00E947E1C899397
:103960001F5F1017A0F3102F812FDF91CF911F91B0
:103970000F910895DC01E0E0F0E013C09E2F88274E
:10398000E92FFF272D9130E0E227F327EE0FFF1FED
:10399000E45AF74F0190F081E02DE827F9276150B4
:1039A00070401616170654F3CF010895EF92FF9258
:1039B0000F931F937C018B01625070400E94BA1CD0
:1039C000282FF701E00FF11F329780813296891777
:1039D00011F090E006C090E031978081821709F4E1
:1039E00091E0892F1F910F91FF90EF9008958FEF35
:1039F00080933D0C84E380933E0C80916B0B80930D
:103A00003F0C80916A0B8093400C8091BD0B80939A
:103A1000410C8DE39CE065E070E00E94BA1C90933D
:103A2000420C8093430C8EEF8093440C08958FEFEB
:103A300080933D0C84E380933E0C8EEE80933F0C8C
:103A40008093400C8093410C8DE39CE065E070E036
:103A50000E94BA1C9093420C8093430C8EEF80938B
:103A6000440C0895E82FF0E0E034F10570F4EA5BCF
:103A7000FE4FEE0FFF1F0590F491E02D099481E0B9
:103A8000089582E0089583E00895089580E0089500
:103A900080936F0B80959091BD0B982B90936D0B3D
:103AA000089580918B0B0E94321D982F8FEF809389
:103AB0006F0B933021F080918C0B8E3E49F48EE396
:103AC00080936F0B8091BD0B816C80936D0B08957B
:103AD000923061F480916A0B893041F48EE38093D7
:103AE0006F0B8091BD0B816C80936D0B089585EAFF
:103AF0000E94DB0280EF0E94DB0280916B0B0E9430
:103B0000DB028AEA0E94DB0285EA0E94DB0281EF87
:103B10000E94DB0280916A0B0E94DB028AEA0E940B
:103B2000DB0285EA0E94DB0282EF0E94DB028091C9
:103B3000BD0B0E94DB028AEA0E94DB0285EA0E943A
:103B4000DB0283EF0E94DB0280916D0B0E94DB029F
:103B50008AEA0E94DB0285EA0E94DB0284EF0E946F
:103B6000DB0280918B0B0E94DB028AEA0E94DB025F
:103B700085EA0E94DB0285EF0E94DB0280918C0BBC
:103B80000E94DB028AEA0E94DB0285EA0E94DB02D5
:103B900086EF0E94DB0280918D0B0E94DB028AEA95
:103BA0000E94DB0285EA0E94DB0287EF0E94DB02B3
:103BB00080916F0B0E94DB028AEA0E94DB0208956B
:103BC000CF93DF93CDE3DCE089910E94DB028CE0B0
:103BD000C534D807C9F7DF91CF910895EF92FF92CE
:103BE0000F931F93DF93CF93CDB7DEB728970FB610
:103BF000F894DEBF0FBECDBF8E010F5F1F4F07C011
:103C0000C80161E00E949F1C813009F041C0898198
:103C10008F3FB1F7CE01029661E00E949F1C813078
:103C2000B9F59A8180918E0B981781F5CE01039694
:103C300066E00E949F1C863049F588858E3F31F5ED
:103C40008E010F5F1F4FC80167E070E00E94D61C15
:103C50008823E1F058E0E52EF12CEC0EFD1EF80172
:103C600081918F010E94DB020E151F05C1F7109292
:103C7000730B1092720B8B8180938B0B8C818093D2
:103C80008C0B8D8180938D0B81E003C00E94EE1D13
:103C900080E028960FB6F894DEBF0FBECDBFCF915F
:103CA000DF911F910F91FF90EF900895EF92FF9297
:103CB0000F931F937B018C0120E030E040E05FE434
:103CC0000E94562188238CF0C801B70120E030E023
:103CD00040E05FE40E94CE1F0E94B6219B01AC0130
:103CE000205030404040504806C0C801B7010E94F3
:103CF000B6219B01AC01B901CA011F910F91FF9040
:103D0000EF900895A0E0B0E0E8E8FEE10C949F2475
:103D1000DC012B01FA019C91923008F439C1EB01CE
:103D20008881823008F433C1943069F4843009F01A
:103D30002FC111969C9111978981981709F428C178
:103D4000ACE5BAE025C1843009F421C18230A9F480
:103D5000923009F01DC19A01AD0188E0EA01099095
:103D6000AE01E90109929E018150C1F7E20189810A
:103D700011969C918923818308C1923009F407C16F
:103D800012962D903C901397EB018A819B8114969B
:103D9000AD90BD90CD90DC901797EC80FD800E81AA
:103DA0001F819101281B390BB90137FF04C0662719
:103DB0007727621B730B603271050CF061C012161D
:103DC00013066CF537014801062E04C096948794BB
:103DD000779467940A94D2F721E030E040E050E015
:103DE00004C0220F331F441F551F6A95D2F721507C
:103DF0003040404050402E213F2140235123211587
:103E000031054105510521F021E030E040E050E06E
:103E100079018A01E628F728082919293CC0232BB3
:103E2000D1F1260E371E35014601062E04C09694A8
:103E30008794779467940A94D2F721E030E040E0C9
:103E400050E004C0220F331F441F551F6A95D2F75C
:103E500021503040404050402A213B214C215D21DF
:103E6000211531054105510521F021E030E040E008
:103E700050E059016A01A628B728C828D9280BC0E4
:103E8000821593052CF01C01AA24BB24650103C0F4
:103E9000EE24FF24870111969C91D20111968C91FA
:103EA000981709F445C0992339F0A80197012A19F8
:103EB0003B094C095D0906C0A60195012E193F0971
:103EC000400B510B57FD08C011823382228224839C
:103ED0003583468357831DC081E0818333822282EC
:103EE00088279927DC01821B930BA40BB50B8483D5
:103EF0009583A683B7830DC0220F331F441F551F20
:103F000024833583468357838281938101979383EA
:103F100082832481358146815781DA01C901019765
:103F2000A109B1098F5F9F4FAF4FBF4328F30BC06B
:103F3000918333822282EA0CFB1C0C1D1D1DE4823E
:103F4000F5820683178383E080832481358146814F
:103F5000578157FF1AC0C901AA2797FDA095BA2F0C
:103F600081709070A070B0705695479537952795E1
:103F7000822B932BA42BB52B84839583A683B783A5
:103F800082819381019693838283DF0101C0D201F4
:103F9000CD01CDB7DEB7E2E10C94BB24A0E2B0E0E6
:103FA000E4EDFFE10C94AB2469837A838B839C83DB
:103FB0002D833E834F835887E9E0EE2EF12CEC0EE3
:103FC000FD1ECE010196B7010E94A7238E010F5E50
:103FD0001F4FCE010596B8010E94A7238A8991E060
:103FE00089278A8BC701B801AE01475E5F4F0E94E7
:103FF000821E0E94D222A096E6E00C94C724A0E282
:10400000B0E0E5E0F0E20C94AB2469837A838B8323
:104010009C832D833E834F835887F9E0EF2EF12C4C
:10402000EC0EFD1ECE010196B7010E94A7238E0162
:104030000F5E1F4FCE010596B8010E94A723C7014E
:10404000B801AE01475E5F4F0E94821E0E94D222DD
:10405000A096E6E00C94C724A0E2B0E0E2E3F0E230
:104060000C949F2469837A838B839C832D833E8366
:104070004F835887CE010196BE01675F7F4F0E9434
:10408000A723CE010596BE016F5E7F4F0E94A72336
:104090009985923088F089898230C8F0943019F47B
:1040A000823051F404C0843029F4923081F48CE5DC
:1040B0009AE0C6C0923049F420E09A858A89981324
:1040C00021E02A87CE010996BBC0823049F420E066
:1040D0009A858A89981321E02A8BCE014196B0C037
:1040E0002D843E844F8458886D887E888F88988C74
:1040F000EE24FF248701AA24BB24650140E050E0A0
:1041000060E070E0E0E0F0E0C10181709070892B28
:10411000E9F0E60CF71C081D191D9A01AB012A0DE8
:104120003B1D4C1D5D1D80E090E0A0E0B0E0E6147A
:10413000F7040805190520F481E090E0A0E0B0E064
:10414000BA01A901480F591F6A1F7B1FAA0CBB1C8B
:10415000CC1CDD1C97FE08C081E090E0A0E0B0E040
:10416000A82AB92ACA2ADB2A3196E032F10549F099
:10417000660C771C881C991C569447943794279496
:10418000C3CFFA85EA892B893C898B859C85280FCA
:10419000391F2E5F3F4F17C0CA0181709070892B65
:1041A00061F016950795F794E79480E090E0A0E021
:1041B000B0E8E82AF92A0A2B1B2B769567955795C4
:1041C00047952F5F3F4F77FDE7CF0CC0440F551F3A
:1041D000661F771F17FD4160EE0CFF1C001F111FAB
:1041E00021503040403090E0590790E0690790E45A
:1041F000790760F32B8F3C8FDB01CA018F779070BA
:10420000A070B07080349105A105B10561F447FD3F
:104210000AC0E114F1040105110529F0405C5F4F6B
:104220006F4F7F4F40781A8EFE1711F081E08A8F12
:104230004D8F5E8F6F8F78A383E0898FCE01499673
:104240000E94D222A096E2E10C94BB24A8E1B0E047
:10425000ECE2F1E20C94AB2469837A838B839C8338
:104260002D833E834F83588789E0E82EF12CEC0E96
:10427000FD1ECE010196B7010E94A7238E010F5E9D
:104280001F4FCE010596B8010E94A7238985823071
:1042900040F08989823028F0C701B8010E941F24AC
:1042A00001C08FEF6896E6E00C94C724A8E1B0E067
:1042B000ECE5F1E20C94AB2469837A838B839C83D5
:1042C0002D833E834F83588789E0E82EF12CEC0E36
:1042D000FD1ECE010196B7010E94A7238E010F5E3D
:1042E0001F4FCE010596B8010E94A7238985823011
:1042F00040F08989823028F0C701B8010E941F244C
:1043000001C08FEF6896E6E00C94C724A8E1B0E006
:10431000ECE8F1E20C94AB2469837A838B839C8371
:104320002D833E834F83588789E0E82EF12CEC0ED5
:10433000FD1ECE010196B7010E94A7238E010F5EDC
:104340001F4FCE010596B8010E94A72389858230B0
:1043500040F08989823028F0C701B8010E941F24EB
:1043600001C081E06896E6E00C94C724ACE0B0E0C0
:10437000ECEBF1E20C94AF2469837A838B839C830A
:10438000CE010196BE016B5F7F4F0E94A7238D81F6
:10439000823061F1823050F1843021F48E818823A3
:1043A00051F12EC02F81388537FD20C06E812F310D
:1043B00031051CF06623F9F023C08EE190E0821BEA
:1043C000930B29853A854B855C8504C056954795A6
:1043D000379527958A95D2F76623B1F05095409589
:1043E000309521953F4F4F4F5F4F0EC020E030E09A
:1043F00040E050E009C02FEF3FEF4FEF5FE704C010
:1044000020E030E040E050E8B901CA012C96E2E03B
:104410000C94CB24A8E0B0E0E0E1F2E20C94A724F5
:104420007B018C01611571058105910519F482E00C
:10443000898360C083E089838EE1C82ED12CDC8221
:10444000CB82ED82FE820F831887C801B7010E94DC
:104450008322FC013197F7FF3BC0222733272E1B15
:104460003F0B57016801022E04C0D694C794B7943D
:10447000A7940A94D2F740E050E060E070E081E059
:1044800090E0A0E0B0E004C0880F991FAA1FBB1FF6
:104490002A95D2F70197A109B1098E219F21A02366
:1044A000B1230097A105B10521F041E050E060E0A3
:1044B00070E04A295B296C297D294D835E836F83D7
:1044C00078878EE190E08E1B9F0B9C838B8312C0BC
:1044D000309781F00E2E04C0EE0CFF1C001F111F40
:1044E0000A94D2F7ED82FE820F831887CE1ADF0A74
:1044F000DC82CB821A82CE0101960E94D2222896BB
:10450000EAE00C94C324EF92FF920F931F937B0178
:104510008C0180E0E81680E0F80681E0080780E082
:10452000180788F48FEFE816F1040105110531F042
:1045300028F088E090E0A0E0B0E017C080E090E0D4
:10454000A0E0B0E012C080E0E81680E0F80680E06D
:10455000080781E0180728F088E190E0A0E0B0E0CB
:1045600004C080E190E0A0E0B0E020E230E040E074
:1045700050E0281B390B4A0B5B0B04C016950795BE
:10458000F794E7948A95D2F7F701EC59F54F8081BB
:10459000281B310941095109C9011F910F91FF9051
:1045A000EF900895DF92EF92FF920F931F93FC011B
:1045B000E480F58006811781D1808081823048F4C3
:1045C00080E090E0A0E1B0E0E82AF92A0A2B1B2B5A
:1045D000A5C0843009F49FC0823021F4EE24FF246A
:1045E000870105C0E114F1040105110519F4E0E0AB
:1045F000F0E096C0628173819FEF623879070CF01A
:104600005BC022E83FEF261B370B2A3131052CF027
:1046100020E030E040E050E02AC0B801A701022EBF
:1046200004C076956795579547950A94D2F781E02F
:1046300090E0A0E0B0E004C0880F991FAA1FBB1F44
:104640002A95D2F70197A109B1098E219F21A023B4
:10465000B1230097A105B10521F081E090E0A0E031
:10466000B0E09A01AB01282B392B4A2B5B2BDA01E6
:10467000C9018F779070A070B07080349105A1054A
:10468000B10539F427FF09C0205C3F4F4F4F5F4F02
:1046900004C0215C3F4F4F4F5F4FE0E0F0E020301F
:1046A000A0E03A07A0E04A07A0E45A0710F0E1E0D2
:1046B000F0E079018A0127C06038710564F5FB01DB
:1046C000E158FF4FD801C7018F779070A070B0708C
:1046D00080349105A105B10539F4E7FE0DC080E4F1
:1046E00090E0A0E0B0E004C08FE390E0A0E0B0E094
:1046F000E80EF91E0A1F1B1F17FF05C01695079528
:10470000F794E794319687E016950795F794E79428
:104710008A95D1F705C0EE24FF248701EFEFF0E082
:104720006E2F679566276795902F9F77D794DD2426
:10473000D7948E2F8695492F462B582F5D29B70188
:10474000CA011F910F91FF90EF90DF900895FC0137
:10475000DB01408151812281622F6F7770E0221F3F
:104760002227221F9381892F880F822B282F30E048
:10477000991F9927991F11969C931197211531051F
:10478000A9F5411551056105710511F482E037C0A5
:1047900082E89FEF13969C938E9312979A01AB0138
:1047A00067E0220F331F441F551F6A95D1F783E03E
:1047B0008C930DC0220F331F441F551F12968D91ED
:1047C0009C911397019713969C938E931297203088
:1047D00080E0380780E0480780E4580758F31496D3
:1047E0002D933D934D935C93179708952F3F31057B
:1047F00079F4411551056105710519F484E08C9334
:10480000089564FF03C081E08C9312C01C9210C015
:104810002F57304013963C932E93129783E08C933E
:1048200087E0440F551F661F771F8A95D1F7706484
:1048300014964D935D936D937C93179708951F93F2
:10484000DC01FB019C91923008F447C080818230EA
:1048500008F443C0943051F411961C91843099F5BA
:104860008181682F70E0611B71093FC0843021F0A5
:10487000923031F48230B9F18181882389F12DC0E1
:1048800011961C9111978230F1F081811817D9F49B
:1048900012962D913C9113978281938182179307F1
:1048A00094F028173907BCF014968D919D910D90C6
:1048B000BC91A02D24813581468157812817390765
:1048C0004A075B0718F4112341F00AC082179307C7
:1048D000A407B50740F4112319F061E070E005C0AA
:1048E0006FEF7FEF02C060E070E0CB011F91089591
:1048F00097FB092E07260AD077FD04D00CD006D0EE
:1049000000201AF4709561957F4F0895F6F7909501
:1049100081959F4F0895AA1BBB1B51E107C0AA1F99
:10492000BB1FA617B70710F0A61BB70B881F991F50
:104930005A95A9F780959095BC01CD0108952F92C5
:104940003F924F925F926F927F928F929F92AF921F
:10495000BF92CF92DF92EF92FF920F931F93CF936C
:10496000DF93CDB7DEB7CA1BDB0B0FB6F894DEBF03
:104970000FBECDBF09942A88398848885F846E8429
:104980007D848C849B84AA84B984C884DF80EE8073
:10499000FD800C811B81AA81B981CE0FD11D0FB67C
:1049A000F894DEBF0FBECDBFED010895FC0188274E
:1049B0009927E89421912032E9F3293010F02E3024
:1049C000C8F32B3241F02D3239F4689404C00E94B0
:1049D000F424820F911D219120532A30C0F31EF43C
:1049E000909581959F4F08957AE0979F902D879F8E
:1049F000802D910D112408950F931F93DF93CF9372
:104A0000CDB7DEB72E970FB6F894DEBF0FBECDBF81
:104A10000D891E8986E08C831A8309838FEF9FE7B7
:104A20009E838D839E01275E3F4FCE0101966F8945
:104A3000788DA9010E942D252F813885020F131F23
:104A4000F80110822E960FB6F894DEBF0FBECDBFD0
:104A5000CF91DF911F910F9108952F923F924F9226
:104A60005F926F927F928F929F92AF92BF92CF92FE
:104A7000DF92EF92FF920F931F93DF93CF93CDB707
:104A8000DEB72B970FB6F894DEBF0FBECDBF3C014B
:104A90002B015A01FC0117821682838181FD03C01C
:104AA0006FEF7FEFC6C19AE0892E1E010894211C8A
:104AB000311CF3012381F20123FD859123FF8191B4
:104AC0002F01882309F4B2C1853239F423FD859181
:104AD00023FF81912F01853229F490E0B3010E94D8
:104AE0005427E7CF982FFF24EE249924FFE1FF15E8
:104AF000D0F09B3269F09C3228F4903259F0933216
:104B000091F40EC09D3249F0903369F441E024C025
:104B100052E0F52A84E0F82A28C098E0F92A25C056
:104B2000E0E1FE2A22C0F7FC29C0892F80538A3099
:104B300070F4F6FE05C0989C902C1124980E15C0B8
:104B4000E89CE02C1124E80EF0E2FF2A0EC09E3211
:104B500029F4F6FC6BC140E4F42A07C09C3619F432
:104B600050E8F52A02C0983649F4F20123FD9591E8
:104B700023FF91912F01992309F0B8CF892F8554F4
:104B8000833018F08052833038F444E050E0A40EB3
:104B9000B51E5FE359830FC0933631F0933779F038
:104BA000933509F056C020C0F5018081898342E029
:104BB00050E0A40EB51E610101E010E012C0F50145
:104BC000C080D180F6FC03C06FEF7FEF02C0692D7B
:104BD00070E042E050E0A40EB51EC6010E944927D5
:104BE0008C015FE7F52214C0F501C080D180F6FC8E
:104BF00003C06FEF7FEF02C0692D70E042E050E02C
:104C0000A40EB51EC6010E943E278C0150E8F52A6D
:104C1000F3FE07C01AC080E290E0B3010E9454275F
:104C2000EA948E2D90E008171907A8F30EC0F6013C
:104C3000F7FC8591F7FE81916F0190E0B3010E942E
:104C40005427E110EA94015010400115110579F73D
:104C5000EAC0943611F0993669F5F7FE08C0F501FF
:104C6000208131814281538184E090E00AC0F501C6
:104C7000808191819C01442737FD4095542F82E02B
:104C800090E0A80EB91E9FE6F92257FF09C0509583
:104C90004095309521953F4F4F4F5F4FE0E8FE2AFA
:104CA000CA01B901A1012AE030E00E948027D82E74
:104CB000D21840C0953729F41F2D1F7E2AE030E01E
:104CC0001DC01F2D197F9F3661F0903720F4983555
:104CD00009F0ACC00FC0903739F0983709F0A6C082
:104CE00004C028E030E00AC0106114FD146020E127
:104CF00030E004C014FD166020E132E017FF08C068
:104D0000F501608171818281938144E050E008C0A7
:104D1000F50180819181BC0180E090E042E050E0AB
:104D2000A40EB51EA1010E948027D82ED2188FE7AD
:104D3000F82EF122F6FE0BC05EEFF522D91438F4FE
:104D4000F4FE07C0F2FC05C08FEEF82202C01D2D54
:104D500001C0192DF4FE0DC0FE01ED0DF11D808185
:104D6000803319F499EEF92208C01F5FF2FE05C0E6
:104D700003C08F2D867809F01F5F0F2DF3FC14C040
:104D8000F0FE0FC01E1510F09D2C0BC09D2C9E0C2C
:104D9000911A1E2D06C080E290E0B3010E945427B4
:104DA0001F5F1E15C0F304C01E1510F4E11A01C0E8
:104DB000EE2404FF0FC080E390E0B3010E9454276B
:104DC00002FF1DC001FD03C088E790E00EC088E52A
:104DD00090E00BC0802F867891F001FF02C08BE23B
:104DE00001C080E2F7FC8DE290E0B3010E945427FD
:104DF00006C080E390E0B3010E9454279A94D9142E
:104E0000C0F3DA94F101ED0DF11D808190E0B30162
:104E10000E945427DD20A9F706C080E290E0B3018C
:104E20000E945427EA94EE20C1F743CEF301668135
:104E30007781CB012B960FB6F894DEBF0FBECDBFA6
:104E4000CF91DF911F910F91FF90EF90DF90CF9066
:104E5000BF90AF909F908F907F906F905F904F909A
:104E60003F902F900895A8E1B0E042E050E00C940C
:104E7000E0270E94EE27272F0C94EF27FC010590D6
:104E8000615070400110D8F7809590958E0F9F1F4C
:104E90000895FC016150704001900110D8F7809591
:104EA00090958E0F9F1F08950F931F93CF93DF93BD
:104EB0008C01EB018B8181FF1BC082FF0DC02E8115
:104EC0003F818C819D812817390764F4E881F9813D
:104ED0000193F983E88306C0E885F985802F099559
:104EE000892B31F48E819F8101969F838E8302C02E
:104EF0000FEF1FEFC801DF91CF911F910F91089520
:104F0000FA01AA27283051F1203181F1E8946F93FA
:104F10006E7F6E5F7F4F8F4F9F4FAF4FB1E03ED0A0
:104F2000B4E03CD0670F781F891F9A1FA11D680F3E
:104F3000791F8A1F911DA11D6A0F711D811D911D71
:104F4000A11D20D009F468943F912AE0269F1124E6
:104F50003019305D3193DEF6CF010895462F47704A
:104F6000405D4193B3E00FD0C9F7F6CF462F4F70A5
:104F7000405D4A3318F0495D31FD4052419302D003
:104F8000A9F7EACFB4E0A6959795879577956795A9
:104F9000BA95C9F700976105710508959B01AC01A9
:104FA0000A2E06945795479537952795BA95C9F7D0
:104FB000620F731F841F951FA01D0895DC01CB0194
:104FC000FC01E199FECF06C0FFBBEEBBE09A319633
:104FD0000DB20D9241505040B8F70895262FE19937
:104FE000FECF9FBB8EBB2DBB0FB6F894E29AE19A21
:0A4FF0000FBE01960895F894FFCF5C
:104FFA002564004D00534F5231004C52004C410081
:10500A00484F000D0025640056004D5600535000CD
:10501A006565707361760041430044454300BBD225
:10502A00B6C8C8A1D1F9B3CCD0F2C6F4B6AF2E2E09
:10503A002E0A0D000A0A0DB0D7C9ABC7F8D3F2A3DE
:10504A00BA000A0DB0D7003A000A0A0DCEE4D7D644
:10505A00C7F8D3F2A3BA000A0DCEE4000A0A0DBAC1
:10506A00DAC9ABC7F8D3F2A3BA000A0DBADA000A52
:10507A000DC8A1D1F9BDE1CAF8A3ACD5FDD4DABDFA
:10508A00F8D0D0BFECCBD9C5C5D0F22E2E2E000A4F
:10509A000DC5C5D0F2CDEAB3C921000A0DD5FDD49C
:1050AA00DABCC6CBE3D3D0D0A7B2C9D1F9D6B52ED4
:1050BA002E2E000A0DBCC6CBE3CDEAB1CFA3A100C8
:1050CA000A0A0DD5FDD4DABCC6CBE3BBD2B6C8C634
:1050DA00ABD6C3D6B52E2E2E000A0DBCC6CBE3CD59
:1050EA00EAB1CF21000A0A0DD0B4454550524F4DBE
:1050FA00D6D02E2E2E000A0DD0B4C8EBB3C9B9A64D
:10510A00A3A1000A0A0DB2C9D1F9BDE1CAF8A3A147
:10511A000A0D000A0A0D2D2D2D2D2D2D2D2D2D2D8B
:10512A002D2D2D2D2D2D2D2D2D2D2D2D2D2D2D2DA5
:10513A002D2D2D2D2D2D2D2D2D2D2D2D2D2D2D2D95
:10514A002D2D2D2D2D2D2D2D2D2D2D2D2D2D2D2D85
:10515A002D2D2D2D2D2D2D2D2D000A0DD7B4CCAC96
:10516A00D6DCC6DAA3BA006D730009BCC7D2E4D68E
:10517A00DCC6DAA3BA000A0DC9CFCCA8B2CECAFDE2
:10518A00A3BA000A0D092020CBD9B6C8A3BA0009D0
:10519A00D7F3A3BA0009D3D2A3BA0009C5C0C9FD7F
:1051AA00CAB1D1D3A3BA000A0DCDC6C6E5B2CECADA
:1051BA00FDA3BA00092020D7B4CCACD6DCC6DAA34A
:1051CA00BA000A0DBBD2B6C8D0C5CFA2A3BA000A8C
:1051DA000D092020BBD2B6C8C6ABD6C3A3BA000AF3
:1051EA000D092020B8F7BBD2B6C8D6B5A3BA0009B4
:1051FA00CEE4A3BA0009B0D7A3BA0009BADAA3BAAF
:10520A00000A0D092020BDC7C2E4C8A8D6B5A3BAB2
:10521A0009000A0DB5E7BBFAD0C5CFA23A000A0DBC
:10522A00092020B5E7BBFA4944A3BA000A0D0920B0
:10523A0020D7EEB4F3CBD9B6C8A3BA09000A0D0930
:10524A002020D7AACDE4CBD9B6C8A3BA09000A0D43
:10525A00092020B0B2C8ABCBD9B6C8A3BA09000A94
:10526A000D092020B0B2C8ABBCD3CBD9A3BA090070
:10527A000A0D092020B9A5BBF7CBD9B6C8A3BA0035
:10528A0009D2BBB5B5A3BA0009B6FEB5B5A3BA0033
:10529A000A0D090909C8FDB5B5A3BA0009CBC4B5F9
:1052AA00B5A3BA000A0D092020B9A5BBF7BCD3CB18
:1052BA00D9A3BA09000A0D2D2D2D2D2D2D2D2D2DF9
:1052CA002D2D2D2D2D2D2D2D2D2D2D2D2D2D2D2D04
:1052DA002D2D2D2D2D2D2D2D2D2D2D2D2D2D2D2DF4
:1052EA002D2D2D2D2D2D2D2D2D2D2D2D2D2D2D2DE4
:1052FA002D2D2D2D2D2D2D2D2D2D000A0A0DB5E725
:10530A00BBFAD1A1CFEEA3BA000A0D312EC9E8D655
:10531A00C3B5E7BBFA4944000A0D322EC9E8D6C321
:10532A00D7EEB4F3CBD9B6C8000A0D332EC9E8D6E6
:10533A00C3D7AACDE4CBD9B6C8000A0D342EC9E822
:10534A00D6C3B0B2C8ABB2CECAFD000A0D352EC95B
:10535A00E8D6C3B9A5BBF7B2CECAFD000A0D302EF6
:10536A00B7B5BBD8000A0D2D3E20000A0A0DC9E8C0
:10537A00D6C3B5E7BBFA4944A3BA000A0DB5E7BBE1
:10538A00FAD7F32830307E3939293A20000A0DB588
:10539A00E7BBFAD3D22830307E3939293A20000ABD
:1053AA000DC9E8D6C3B3C9B9A6A3A1000A0A0DC993
:1053BA00E8D6C3D7EEB4F3CBD9B6C82830303030EC
:1053CA0030207E20323030303029A3BA000A0A0D4C
:1053DA00C9E8D6C3D7AACDE4CBD9B6C8283030306D
:1053EA003030207E20323030303029A3BA000A0A09
:1053FA000DC9E8D6C3B0B2C8ABB2CECAFDA3BA00D3
:10540A000A0DB0B2C8ABCBD9B6C82830303030306C
:10541A007E323030303029A3BA000A0DB0B2C8ABA0
:10542A00BCD3A1A2BCF5CBD9B6C8283030303030B5
:10543A007E313030303029A3BA000A0A0DC9E8D6C5
:10544A00C3B9A5BBF7B2CECAFDA3BA000A0DD2BB37
:10545A00B5B5CBD9B6C82830303030307E3230308E
:10546A00303029A3BA000A0DB6FEB5B5CBD9B6C8F5
:10547A002830303030307E323030303029A3BA0014
:10548A000A0DC8FDB5B5CBD9B6C828303030303092
:10549A007E323030303029A3BA000A0DCBC4B5B5FC
:1054AA00CBD9B6C82830303030307E323030303048
:1054BA0029A3BA000A0DB9A5BBF7BCD3A1A2BCF5B2
:1054CA00CBD9B6C82830303030307E353030303025
:1054DA0029A3BA000A0A0DC9CFCCA8B2CECAFDA325
:1054EA00BA000A0D312EC9E8D6C3CBD9B6C8000A0C
:1054FA000D322EC9E8D6C3C9CFCCA8CAB1D1D300C0
:10550A000A0A0DC9E8D6C3C9CFCCA8CBD9B6C8A355
:10551A00BA000A0DCBD9B6C8D7F3282D393939398B
:10552A007E3039393939293A20000A0DCBD9B6C823
:10553A00D3D2282D393939397E3039393939293A8E
:10554A0020000A0DC9CFCCA8CAB1D1D32830303037
:10555A00307E39393939293A20000A0A0DC9E8D684
:10556A00C3BDC7C2E4C8A8D6B528307E3929A3BAB4
:10557A00000A0A0DC9E8D6C3BCC7D2E4D6DCC6DA2B
:10558A0028303030307E393939396D7329A3BA0061
:10559A000A0A0DC9E8D6C3D7B4CCACD6DCC6DA2819
:1055AA003030307E3939396D7329A3BA000A0A0DB1
:1055BA00CDC6C6E5B2CECAFDA3BA000A0D322EC9BF
:1055CA00E8D6C3BCC7D2E4D6DCC6DA000A0A0DC9DB
:1055DA00E8D6C3CDC6C6E5D7D3CBD9B6C8283030AE
:1055EA0030307E3939393929A3BA000A0DCDC6C6F9
:1055FA00E5D7D3BCC7D2E4D6DCC6DA28303030309F
:10560A007E39393939293A20000A0A0DC9E8D6C340
:10561A00C4A3CABDC6F4B6AFA3ACD5FDD4DAB6C12D
:10562A00C8A1D0C5CFA22E2E2E000A0DB6C1C8A180
:10563A00B3C9B9A6A3A1000A0A0DC4FAD2AABDF831
:10564A00D0D0C4C4CFEEB2D9D7F73F000A0D312E5D
:10565A00B4F2D3A1B5B1C7B0D0C5CFA20009322EDA
:10566A00C9E8D6C3CDC6C6E5B2CECAFD0009332EF7
:10567A00BDF8D0D0BBD2B6C8B2C9D1F90009342E10
:10568A00C9E8D6C3BDC7C2E4C8A8D6B5000A0D3555
:10569A002EC9E8D6C3D7B4CCACD6DCC6DA000936F4
:1056AA002EC9E8D6C3BCC7D2E4D6DCC6DA000937AD
:1056BA002EC9E8D6C3C9CFCCA8B2CECAFD000938D4
:1056CA002EC9E8D6C3B5E7BBFAB2CECAFD000A0DA9
:1056DA006C2ED6D8B6C10009772EB1A3B4E6000A5B
:1056EA000A0DD5FDD4DAB1A3B4E62E2E2E000A0D8A
:1056FA00B1A3B4E6B3C9B9A621000A0A0DD5FDD4EF
:10570A00DAD6D8D0C2B6C1C8A1D0C5CFA22E2E2E05
:10571A000009463A00094C3A0009523A0021082584
:10572A000829080000020001000A0D4D4F44453ABD
:10573A002046494748540A0D00D5FDD4DAB6C1C8F7
:10574A00A1656570726F6D2E2E2E0A00000005800D
:10575A000F800A001B801E0014001180338036005F
:10576A003C00398028002D80278022006380660053
:10577A006C00698078007D807780720050005580C7
:10578A005F805A004B804E0044004180C380C600AF
:10579A00CC00C980D800DD80D780D200F000F58027
:1057AA00FF80FA00EB80EE00E400E180A000A58013
:1057BA00AF80AA00BB80BE00B400B180938096007F
:1057CA009C00998088008D80878082008381860171
:1057DA008C01898198019D8197819201B001B581DF
:1057EA00BF81BA01AB81AE01A401A181E001E581CB
:1057FA00EF81EA01FB81FE01F401F181D381D60137
:10580A00DC01D981C801CD81C781C201400145812E
:10581A004F814A015B815E01540151817381760196
:10582A007C01798168016D8167816201238126018A
:10583A002C01298138013D813781320110011581FE
:10584A001F811A010B810E010401018103830603E2
:10585A000C03098318031D8317831203300335834E
:10586A003F833A032B832E0324032183600365833A
:10587A006F836A037B837E037403718353835603A6
:10588A005C03598348034D8347834203C003C5839E
:10589A00CF83CA03DB83DE03D403D183F383F60306
:1058AA00FC03F983E803ED83E783E203A383A603FA
:1058BA00AC03A983B803BD83B783B203900395836E
:1058CA009F839A038B838E0384038183800285825C
:1058DA008F828A029B829E0294029182B382B602CE
:1058EA00BC02B982A802AD82A782A202E382E602C2
:1058FA00EC02E982F802FD82F782F202D002D58236
:10590A00DF82DA02CB82CE02C402C182438246021D
:10591A004C02498258025D82578252027002758295
:10592A007F827A026B826E02640261822002258281
:10593A002F822A023B823E023402318213821602ED
:10594A001C02198208020D8207820202000000006E
:10595A00000000000001020203030303040404041C
:10596A0004040404050505050505050505050505E1
:10597A0005050505060606060606060606060606C1
:10598A0006060606060606060606060606060606AD
:10599A000606060607070707070707070707070791
:1059AA00070707070707070707070707070707077D
:1059BA00070707070707070707070707070707076D
:1059CA00070707070707070707070707070707075D
:1059DA000707070708080808080808080808080841
:1059EA00080808080808080808080808080808082D
:1059FA00080808080808080808080808080808081D
:105A0A00080808080808080808080808080808080C
:105A1A0008080808080808080808080808080808FC
:105A2A0008080808080808080808080808080808EC
:105A3A0008080808080808080808080808080808DC
:105A4A0008080808080808080808080808080808CC
:045A5A000808080828
:00000001FF
